:100000000C9464000C948C000C948C000C94BA0535
:100010000C94BA050C94BA050C948C000C946B02E9
:100020000C948C000C948C000C948C000C948C0020
:100030000C948C000C948C000C948C000C948C0010
:100040000C9470050C948C000C949D040C94770413
:100050000C948C000C948C000C948C000C948C00F0
:100060000C948C000C948C000200000000250028E9
:10007000002B0000000000230026002900040404D7
:100080000404040404020202020202030303030341
:10009000030102040810204080010204081020011E
:1000A000020408102000000000240027002A00009D
:1000B0000000080002010000030407000000000027
:1000C00000000000F208440D11241FBECFEFD8E05D
:1000D000DEBFCDBF24E0A6ECB2E001C01D92A0348B
:1000E000B207E1F712E0A0E0B1E0E2E4FEE102C015
:1000F00005900D92A63CB107D9F710E0C3E6D0E019
:1001000004C02197FE010E94090FC236D107C9F72A
:100110000E94BD090C94140F0C940000EBEDF2E06A
:10012000A089B18982E08C93A485B5851C92A685AF
:10013000B7858FEC8C93108EA489B58986E08C935B
:10014000A289B3898C9180618C93A289B3898C91A7
:1001500088608C93A289B3898C9180688C93028883
:10016000F389E02D80818F7D80830895CF92DF9287
:10017000EF92FF920F931F93CF93DF936C017A015D
:100180008B01C0E0D0E0CE15DF0589F0D8016D917C
:100190008D01D601ED91FC910190F081E02DC60119
:1001A0000995892B11F47E0102C02196ECCFC7017D
:1001B000DF91CF911F910F91FF90EF90DF90CF9043
:1001C000089590910201981324C0E8E6F0E0E491CC
:1001D0009FEF90930201E130B9F098F0E230C9F45A
:1001E000909170009D7F9093700091E09093B0008B
:1001F0009091B100987F94609093B1001092B300F9
:1002000008C010926E0005C090916F009D7F909382
:100210006F0060E00C94F8040F931F930E94640534
:100220006093800370938103809382039093830390
:10023000E0917803F09179030484F585E02D88E757
:1002400093E0099597FF1FC00E9464050091800309
:10025000109181032091820330918303DC01CB0153
:10026000801B910BA20BB30B00917C0310917D03BB
:1002700020917E0330917F0380179107A207B30777
:10028000B8F28FEF9FEF1F910F910895FF920F9398
:100290001F93CF93DF9300D000D0CDB7DEB70E947D
:1002A0000C01FC0197FD11C08D32910591F0C097B2
:1002B0000A9778F0E0917803F09179030284F3854E
:1002C000E02D88E793E00995EACF60E070E0CB018C
:1002D0004CC020E030E0A901F12CE130F105F1F053
:1002E000ED32F105C9F0CF01C0970A97B8F4AAE042
:1002F000B0E00E946B0E8F01FF0F220B330BDC016D
:10030000CB01800F911FA21FB31F9C01AD01205391
:1003100031094109510902C0FF24F394E0917803A7
:10032000F09179030284F385E02D88E793E0298337
:100330003A834B835C8309950E940C01FC01C097B2
:1003400029813A814B815C810A9738F2E130F105CD
:1003500021F2FF2041F066277727CB01621B730B48
:10036000840B950B02C0CA01B9010F900F900F903A
:100370000F90DF91CF911F910F91FF90089561151C
:10038000710579F0FB0101900020E9F73197AF0189
:10039000461B570BDC01ED91FC910280F381E02DAF
:1003A000099480E090E008954F925F926F927F925F
:1003B000EF92FF920F931F93CF93DF93CDB7DEB7EA
:1003C000A1970FB6F894DEBF0FBECDBF7C01FA0136
:1003D000CB0119A2223008F42AE08E010F5D1F4FD5
:1003E000422E512C612C712CBF01A30192010E945D
:1003F000490EF901CA01015011096A3014F4605D17
:1004000001C0695CD8016C93232B242B252B61F749
:10041000B801C7010E94BF01A1960FB6F894DEBFD4
:100420000FBECDBFDF91CF911F910F91FF90EF9045
:100430007F906F905F904F900895CF92DF92EF92F0
:10044000FF92CF93DF936B017C01E091DB02F0918F
:10045000DC020190F081E02D6DE28BED92E00995D8
:10046000EC0144275527BA014C195D096E097F0933
:100470002AE08BED92E00E94D4018C0F9D1FDF914A
:10048000CF91FF90EF90DF90CF900895AC01990F3E
:10049000660B770B77FF04C0CB01BA010C941D02E9
:1004A0002AE08BED92E00C94D4010F931F93CF932D
:1004B000DF93EC010E94BF018C0166EA72E0CE017D
:1004C0000E94BF01800F911FDF91CF911F910F916B
:1004D00008950C94BF011F920F920FB60F92112432
:1004E0002F933F934F935F936F937F938F939F933C
:1004F000AF93BF93EF93FF938091D7029091D8026F
:10050000A091D902B091DA02892B8A2B8B2B51F161
:100510008091D602E091D402F091D5029081892792
:1005200080838091D7029091D802A091D902B09196
:10053000DA02181619061A061B06C4F48091D702AF
:100540009091D802A091D902B091DA020197A10945
:10055000B1098093D7029093D802A093D902B093A7
:10056000DA0204C0809102010E94E100FF91EF9144
:10057000BF91AF919F918F917F916F915F914F91BB
:100580003F912F910F900FBE0F901F901895FC0177
:10059000538D448D252F30E0842F90E0821B930BE8
:1005A000541710F0CF96089501970895FC01918D8E
:1005B000828D981761F0828DDF01A80FB11D5D96C5
:1005C0008C91928D9F5F9F73928F90E008958FEF33
:1005D0009FEF0895FC01918D828D981731F0828DE7
:1005E000E80FF11D858D90E008958FEF9FEF08953E
:1005F000FC01918D228D892F90E0805C9F4F821BA2
:1006000091098F73992708958BED92E00E94F8026B
:1006100021E0892B09F420E0822F0895FC01848DCC
:10062000DF01A80FB11DA35ABF4F2C91848D90E01C
:1006300001968F739927848FA689B7892C93A089F7
:10064000B1898C9180648C93938D848D981306C0AE
:100650000288F389E02D80818F7D80830895EF9259
:10066000FF920F931F93CF93DF93EC0181E0888F6C
:100670009B8D8C8D981305C0E889F989808185FD53
:1006800024C0F62E0B8D10E00F5F1F4F0F73112744
:10069000E02E8C8DE8120CC00FB607FCFACFE8896B
:1006A000F989808185FFF5CFCE010E940E03F1CF3D
:1006B0008B8DFE01E80FF11DE35AFF4FF0820B8F87
:1006C000EA89FB898081806207C0EE89FF896083A7
:1006D000E889F98980818064808381E090E0DF91FE
:1006E000CF911F910F91FF90EF900895CF93DF93DB
:1006F000EC01888D8823C9F0EA89FB89808185FD1A
:1007000005C0A889B9898C9186FD0FC00FB607FC7A
:10071000F5CF808185FFF2CFA889B9898C9185FFBB
:10072000EDCFCE010E940E03E7CFDF91CF91089568
:1007300080E090E0892B29F00E94040381110C9441
:1007400000000895833081F028F4813099F08230E0
:10075000A1F008958730A9F08830B9F08430D1F441
:10076000809180008F7D03C0809180008F7780937F
:100770008000089584B58F7702C084B58F7D84BDD5
:1007800008958091B0008F7703C08091B0008F7D75
:100790008093B00008952091C8023091C9022817B3
:1007A000390771F49091C6028091C702981741F001
:1007B000E091C602F0E0E950FC4F808190E008959E
:1007C0008FEF9FEF089508951F93CF93DF93DC0180
:1007D0005C962D913C915D972115310539F481E0AE
:1007E00090E013969C938E9312973DC05196ED9195
:1007F000FC91529750969C915097892F80951FB7E6
:100800005E964C915E9741FB772770F941FD6095AC
:10081000F8944081772311F0492B01C0482340838D
:10082000E9012197F1F748E0508160FF02C0592BA0
:1008300001C058235083E9012197F1F76695415093
:1008400099F7772321F090818923808303C08081E9
:10085000982B90831FBF5C968D919C915D9701971B
:10086000F1F721E030E0C901DF91CF911F910895A8
:100870002091C8023091C9022817390771F480917C
:10088000C7022091C60290E0805C9F4F821B9109B5
:1008900060E470E00E94BB0E089580E090E008954F
:1008A0002091C8023091C90228173907B9F49091F4
:1008B000C6028091C702981789F0E091C602F0E065
:1008C000E950FC4F80812091C60230E02F5F3F4FFE
:1008D0002F7333272093C60290E008958FEF9FEF88
:1008E0000895089580E090E008950E940F0F1F92F0
:1008F0000F920FB60F9211242F933F934F935F9354
:100900006F937F938F939F93AF93BF93EF93FF93D7
:100910008BED92E00E940E03FF91EF91BF91AF919A
:100920009F918F917F916F915F914F913F912F9107
:100930000F900FBE0F901F9018951F920F920FB639
:100940000F9211242F938F939F93EF93FF93E09136
:10095000EB02F091EC028081E091F102F091F20261
:1009600082FD12C090818091F4028F5F8F7320917D
:10097000F502821751F0E091F402F0E0E552FD4FEC
:10098000958F8093F40201C08081FF91EF919F9138
:100990008F912F910F900FBE0F901F901895CF93AE
:1009A000DF93282F30E0F901E155FF4F8491F901E1
:1009B000EF56FF4FD491F901E358FF4FC491CC2378
:1009C00091F081110E94A203EC2FF0E0EE0FFF1FC7
:1009D000ED58FF4FA591B491EC91ED2381E090E0AB
:1009E00021F480E002C080E090E0DF91CF91089593
:1009F0001F93CF93DF93282F30E0F901E155FF4F8C
:100A00008491F901EF56FF4FD491F901E358FF4F5C
:100A1000C491CC23C9F0162F81110E94A203EC2FA0
:100A2000F0E0EE0FFF1FE759FF4FA591B4918FB78C
:100A3000F894111105C09C91ED2FE095E92302C0B7
:100A4000EC91ED2BEC938FBFDF91CF911F91089527
:100A5000CF93DF9390E0FC01EF56FF4F2491FC0110
:100A6000E358FF4F8491882361F190E0880F991F2C
:100A7000FC01EB55FF4FC591D491FC01E759FF4FA5
:100A8000A591B491611109C09FB7F8948881209510
:100A900082238883EC912E230BC0623061F49FB7D0
:100AA000F8943881822F809583238883EC912E2BB4
:100AB0002C939FBF06C08FB7F894E8812E2B288314
:100AC0008FBFDF91CF9108952FB7F89460913C04C8
:100AD00070913D0480913E0490913F042FBF089592
:100AE0001F920F920FB60F9211242F933F938F9363
:100AF0009F93AF93BF9380913C0490913D04A0914C
:100B00003E04B0913F0430913B0423E0230F2D3786
:100B100020F40196A11DB11D05C026E8230F029601
:100B2000A11DB11D20933B0480933C0490933D0490
:100B3000A0933E04B0933F04809137049091380411
:100B4000A0913904B0913A040196A11DB11D809382
:100B5000370490933804A0933904B0933A04BF91BA
:100B6000AF919F918F913F912F910F900FBE0F905A
:100B70001F9018951F920F920FB60F9211242F936A
:100B80003F934F935F936F937F938F939F93AF9315
:100B9000BF93EF93FF93E091C802F091C9023097A1
:100BA00009F451C0968DA685B785858591FF04C04F
:100BB0009C91892329F447C09C91892309F043C063
:100BC000A389B4899C918589809589238C93868992
:100BD00097890197F1F7608D718DA685B785558549
:100BE00038E020E0CB010197F1F7822F90E0959556
:100BF0008795282F4C91452309F02068315091F7B3
:100C0000868D81FD20958091C70290E001968F73BB
:100C100099273091C602381749F0A091C702B0E079
:100C2000A950BC4F2C938093C70203C0868D81606E
:100C3000868F828D938D0197F1F7A389B4899C915A
:100C40008589892B8C93FF91EF91BF91AF919F91F3
:100C50008F917F916F915F914F913F912F910F9065
:100C60000FBE0F901F901895E091C802F091C90235
:100C7000E817F90769F4A389B4899C91858980955F
:100C800089238C931092C9021092C80281E00895C2
:100C900080E008952F923F924F925F926F927F92E1
:100CA0008F929F92AF92BF92CF92DF92EF92FF927C
:100CB0000F931F93CF93DF9300D000D01F92CDB737
:100CC000DEB71C018CE494E00E94BB0E8B012B016B
:100CD000770F6608770880910201883021F08F3FF6
:100CE00009F0CCC105C0E8E6F0E024912D8376C080
:100CF00088E080930201E8E6F0E0E491EF3F09F438
:100D0000BDC1E13011F1E23009F443C0E11165C029
:100D100014BC15BC84B5826084BD85B5816085BD79
:100D2000E5E8F0E0E491F0E0EE0FFF1FE759FF4F38
:100D3000859194919093EE038093ED03E9E9F0E0BF
:100D4000E491E093EC031D824CC01092800010925D
:100D50008100809181008860809381008091810072
:100D6000816080938100E5E8F0E0E491F0E0EE0F2F
:100D7000FF1FE759FF4F859194919093EB03809368
:100D8000EA03E9E9F0E0E491E093E90381E08D838F
:100D900028C01092B0001092B1008091B000826023
:100DA0008093B0008091B10081608093B100E5E84C
:100DB000F0E0E491F0E0EE0FFF1FE759FF4F85915F
:100DC00094919093D5028093D402E9E9F0E0E49104
:100DD000E093D60292E09D8304C0ED83ED81E7FDB0
:100DE0004DC161E088E00E9428054101A12CB12C91
:100DF0008D818D7F09F0BDC060E072E18AE790E0EF
:100E0000A50194010E94CF0E29833A834B835C8312
:100E100069017A01F1E0CF1AD108E108F1082FEF5A
:100E2000C216D104E104F10409F008F44DC060E4F5
:100E300072E48FE090E0A50194010E94CF0E690159
:100E40007A0181E0C81AD108E108F1089D81923049
:100E500001F5EFEFCE16D104E104F10409F008F436
:100E6000BFC160E970ED83E090E0A50194010E94AC
:100E7000CF0E69017A01F1E0CF1AD108E108F1083B
:100E80002FEFC216D104E104F10409F0E0F583E08C
:100E900069C08FEFC816D104E104F104B9F0B0F0D5
:100EA00068E478EE81E090E0A50194010E94CF0E05
:100EB00069017A0191E0C91AD108E108F108ED81D0
:100EC000EE2309F432C183C181E001C082E02D81AB
:100ED0002223A1F047C089819A81AB81BC812AE09D
:100EE000B595A795979587952A95D1F76C017D01C2
:100EF00021E0C21AD108E108F10885E095B5987F94
:100F0000892B85BD6FC068E478EE81E090E0A50193
:100F100094010E94CF0E69017A0191E0C91AD108AB
:100F2000E108F108EFEFCE16D104E104F10409F075
:100F300008F4F9C064E274EF80E090E0A501940148
:100F40000E94CF0E69017A01F1E0CF1AD108E108C1
:100F5000F1082FEFC216D104E104F10411F008F0FA
:100F600006C185E09091B100987F892B8093B100F4
:100F700039C060E072E18AE790E0A50194010E9427
:100F8000CF0E69017A0181E0C81AD108E108F108A1
:100F9000C114D10491E0E906F10488F068E478EE28
:100FA00081E090E0A50194010E94CF0E69017A01D1
:100FB000E1E0CE1AD108E108F10893E001C091E028
:100FC000FD81F13079F480918100887F892B8093B5
:100FD0008100411451046104710449F42FEF3FEF83
:100FE000A9012BC0411451046104710469F09101FD
:100FF000220F331FD8010E94EE0E28EE33E040E0AE
:1010000050E00E94490E03C02FEF3FEFA9018D81F0
:10101000813099F0823019F1811130C0C7BC209322
:10102000F3033093F4034093F5035093F603809158
:101030006E00826080936E0021C0D0928900C092C1
:1010400088002093EF033093F0034093F103509313
:10105000F20380916F00826080936F000FC0C09296
:10106000B3002093D7023093D8024093D902509313
:10107000DA02809170008260809370000E946405A3
:101080006B017C01C301B2010E94500D2AE939E9CC
:1010900049E95FE30E948B0D0E94850ECB01770F1B
:1010A000AA0BBB0B8C0D9D1DAE1DBF1D8093CE02E8
:1010B0009093CF02A093D002B093D1020E94640516
:1010C000460E571E681E791E4092CA025092CB02ED
:1010D0006092CC027092CD028091D2029091D302A4
:1010E000019660910001709101010E94BB0E9093E6
:1010F000D3028093D2020F900F900F900F900F9019
:10110000DF91CF911F910F91FF90EF90DF90CF90E3
:10111000BF90AF909F908F907F906F905F904F9017
:101120003F902F90089584E01DCF8FEFC816D10413
:10113000E104F104D1F0C8F062E17AE780E090E0E8
:10114000A50194010E94CF0E69017A01F1E0CF1A46
:10115000D108E108F1082FEFC216D104E104F1042F
:1011600011F008F0B8CE84E0C9CE83E0C7CE62E1CA
:101170007AE780E090E0A50194010E94CF0E69011A
:101180007A0191E0C91AD108E108F108EFEFCE1613
:10119000D104E104F104C9F0C0F089819A81AB81E6
:1011A000BC815AE0B595A795979587955A95D1F743
:1011B0006C017D01E1E0CE1AD108E108F108FD8162
:1011C000FF2309F49ACE87E0CDCE86E080CEFFEFF4
:1011D000CF16D104E104F10409F048F684E077CE9B
:1011E00082E0C0CE1092DE021092DD0288EE93E023
:1011F000A0E0B0E08093DF029093E002A093E102D0
:10120000B093E20227E732E03093DC022093DB0266
:1012100025EC30E03093E8022093E70224EC30E044
:101220003093EA022093E90220EC30E03093EC02A4
:101230002093EB0221EC30E03093EE022093ED029C
:1012400022EC30E03093F0022093EF0226EC30E005
:101250003093F2022093F1021092F4021092F50200
:101260001092F6021092F7021092A7031092A803B0
:101270001092A9031092AA031092AB031092AC0330
:101280001092AD031092AE031092AF031092B00310
:101290001092B1031092B2031092B3031092B403F0
:1012A0001092B5031092B60310927B0310927A034A
:1012B00080937C0390937D03A0937E03B0937F0380
:1012C00089E892E0909379038093780310928F03DA
:1012D00010928E0310929103109290031092930338
:1012E00010929203109295031092940360919603CA
:1012F0006E7F6D7F609396036695617081E06827CD
:1013000083E00E94F80461E083E00E942805E4E99C
:10131000F0E0E491E0938803E0E8F0E0E491F0E0AD
:10132000EE0FFF1FE759FF4F8591949190938A0329
:101330008093890360E082E00E94280580919603F3
:1013400081FD04C061E082E00E94F80482E08093A5
:101350008403E3E9F0E0E491E0938503EFE7F0E054
:10136000E491F0E0EE0FFF1FED58FF4F859194914F
:1013700090938703809386030895789484B5826060
:1013800084BD84B5816084BD85B5826085BD85B529
:10139000816085BD80916E00816080936E001092A7
:1013A0008100809181008260809381008091810022
:1013B00081608093810080918000816080938000B3
:1013C0008091B10084608093B1008091B000816011
:1013D0008093B00080917A00846080937A0080913D
:1013E0007A00826080937A0080917A008160809395
:1013F0007A0080917A00806880937A001092C10010
:101400001092E5031092E6031092E7031092E803AE
:101410001092A3031092A4031092A5031092A603A6
:101420000E9464056B017C014B015C0128EB820E7C
:101430002BE0921EA11CB11C0E9464056C157D0559
:101440008E059F0528F086169706A806B906A0F710
:101450008BED92E09093E4038093E3030E948E006F
:101460000E9464056093A3037093A4038093A50373
:101470009093A60367E972E08091E3039091E403FF
:101480000E9469020E9464056B017C014B015C01B2
:101490003AE0830E911CA11CB11C0E9464056C15DE
:1014A0007D058E059F0528F086169706A806B906C5
:1014B000A0F781E08093B7031092930310929203F8
:1014C000109291031092900310928F0310928E034A
:1014D0008DE991E090939503809394039091840318
:1014E000963108F057C02DEB30E030938F032093F6
:1014F0008E032BE931E030939103209390032CE28B
:1015000031E0309393032093920320916800983048
:1015100050F031E09E3008F430E081E001C0880FE7
:101520003A95EAF701C084E0822B809368009830F6
:1015300038F09E3040F0963148F020E030E008C0AE
:101540002DE630E005C02BE630E002C02CE630E0AE
:1015500030938C0320938B03983030F481E001C0EA
:10156000880F9A95EAF70EC0292F30E09E3018F4C4
:101570002850310902C02E50310981E001C0880F86
:101580002A95EAF780938D038091940390919503B7
:101590000197F1F78091920390919303892B21F1A8
:1015A0008091C8029091C90243E088379407E1F026
:1015B000009711F00E943406809196038E7F8093ED
:1015C00096031092C7021092C60288E793E09093A8
:1015D000C9028093C802E0918B03F0918C03908143
:1015E00080918D03892B80830E948E0088E793E091
:1015F0000E943804892BD1F388E793E00E945004BD
:101600000A97A1F760E085E00E94280560E086E087
:101610000E94280560E087E00E94280583E2282ECA
:10162000312C03E110E0C5E1D0E00E946405672B96
:10163000682B692B41F40E946405623071058105B5
:10164000910508F416C10E94640560939D03709390
:101650009E0380939F039093A003C0909903D09022
:101660009A03E0909B03F0909C036C157D058E051A
:101670009F0540F46093990370939A0380939B03B2
:1016800090939C03C0909903D0909A03E0909B03A1
:10169000F0909C039B01AC012C193D094E095F0998
:1016A00069017A013AEFC316D104E104F10408F4A8
:1016B000E0C06093990370939A0380939B03909387
:1016C0009C0384EF91E0A0E0B0E08093AF0390939F
:1016D000B003A093B103B093B2031092B30310927E
:1016E000B4031092B5031092B6038091A7039091B2
:1016F000A803A091A903B091AA038093AB03909390
:10170000AC03A093AD03B093AE030E946405609355
:10171000A7037093A8038093A9039093AA030E9440
:1017200064056093A3037093A4038093A50390932F
:10173000A6030E9464056B017C0169EA72E0809156
:10174000E3039091E4030E9469022AE041E050E043
:1017500060E070E08091E3039091E4030E94D40183
:1017600060EB72E08091E3039091E4030E946902D0
:101770002AE0B701A6018091E3039091E4030E945F
:10178000D40162EB72E08091E3039091E4030E9444
:1017900069028091A7039091A803A091A903B09139
:1017A000AA03B701A601481B590B6A0B7B0B2AE061
:1017B0008091E3039091E4030E94D40162EB72E014
:1017C0008091E3039091E4030E9469024091A70392
:1017D0005091A8036091A9037091AA038091AB0373
:1017E0009091AC03A091AD03B091AE03481B590B8F
:1017F0006A0B7B0B2AE08091E3039091E4030E9443
:10180000D40164EB72E08091E3039091E4030E94C1
:1018100069020E946405AB01BC012AE08091E303E8
:101820009091E4030E94D40166EB72E08091E3039F
:101830009091E4030E9455020E9464054B015C01F3
:101840006B017C0192E0C90ED11CE11CF11C0E94CD
:101850006405681579058A059B0508F00EC10E948C
:1018600064056093A7037093A8038093A9039093E2
:10187000AA0385E00E94CF04019779F4109298039F
:10188000109297031092D3021092D202D0930101CA
:10189000C09300016DEB72E02AC086E00E94CF0485
:1018A0008130910579F49093980380939703109277
:1018B000D3021092D20210930101009300016FEB4A
:1018C00072E015C087E00E94CF040197A1F4A2E066
:1018D000B0E0B0939803A09397031092D3021092B4
:1018E000D202309201012092000161EC72E08BED96
:1018F00092E00E94550288E793E00E943804892B09
:1019000009F4B8C00E9446014B015C010E944601E7
:101910002B013C010E9446016B017C01C4010E9425
:10192000460263EC72E08BED92E00E946902C20114
:101930000E94460263EC72E08BED92E00E94690225
:10194000C6010E94460263EC72E08BED92E00E94B9
:1019500069024091CE025091CF026091D002709105
:10196000D10277FF05C0CB01BA010E941D0205C05C
:101970002AE08BED92E00E94D40166EA72E08BEDE2
:1019800092E00E94BF01B4EF4B1AB1E05B0A29EC70
:101990004216510490F438EC831A91084DE28416F3
:1019A00041E0940650F450E2C51A53E0D50A85EFA1
:1019B000C81681E0D80608F44BC0C090CE02D09083
:1019C000CF02E090D002F090D1020E946405C616CA
:1019D000D706E806F906E0F5809197039091980301
:1019E00081309105A1F08230910501F1892B81F5BB
:1019F0008091D2029091D302880F991FFC01ED5D76
:101A0000FD4F60817181FC01ED52FE4F1DC0809140
:101A1000D2029091D302880F991FFC01EB56FE4F22
:101A200060817181FC01E15BFE4F0EC08091D202AA
:101A30009091D302880F991FFC01E75DFE4F6081F2
:101A40007181FC01ED5FFE4F808191810E944A0609
:101A5000C090CA02D090CB02E090CC02F090CD02B0
:101A60000E946405C616D706E806F90618F489E050
:101A70000E94E1000E949803D8CDC616D706E8065A
:101A8000F90608F0E4CEEBCE89E892E09093790372
:101A90008093780388E793E00C943406E89409C0B7
:101AA00097FB3EF490958095709561957F4F8F4F91
:101AB0009F4F9923A9F0F92F96E9BB279395F695A7
:101AC000879577956795B795F111F8CFFAF4BB0F25
:101AD00011F460FF1BC06F5F7F4F8F4F9F4F16C089
:101AE000882311F096E911C0772321F09EE8872F13
:101AF000762F05C0662371F096E8862F70E060E0CF
:101B00002AF09A95660F771F881FDAF7880F969547
:101B1000879597F908950E949E0D0C940F0E0E94D0
:101B2000010E38F00E94080E20F0952311F00C945D
:101B3000F80D0C94FE0D11240C94430E0E94200EFF
:101B400070F3959FC1F3950F50E0551F629FF00110
:101B5000729FBB27F00DB11D639FAA27F00DB11D29
:101B6000AA1F649F6627B00DA11D661F829F2227B2
:101B7000B00DA11D621F739FB00DA11D621F839F39
:101B8000A00D611D221F749F3327A00D611D231F0F
:101B9000849F600D211D822F762F6A2F11249F575D
:101BA00050409AF0F1F088234AF0EE0FFF1FBB1F60
:101BB000661F771F881F91505040A9F79E3F51051F
:101BC00080F00C94F80D0C94430E5F3FE4F3983EC4
:101BD000D4F3869577956795B795F795E7959F5FC9
:101BE000C1F7FE2B880F911D9695879597F908955B
:101BF00097F99F6780E870E060E008959FEF80ECC0
:101C0000089500240A941616170618060906089562
:101C100000240A9412161306140605060895092EC8
:101C20000394000C11F4882352F0BB0F40F4BF2B37
:101C300011F460FF04C06F5F7F4F8F4F9F4F089577
:101C400057FD9058440F551F59F05F3F71F047956D
:101C5000880F97FB991F61F09F3F79F08795089552
:101C6000121613061406551FF2CF4695F1DF08C071
:101C7000161617061806991FF1CF8695710561058E
:101C800008940895E894BB2766277727CB0197F936
:101C90000895A1E21A2EAA1BBB1BFD010DC0AA1FAD
:101CA000BB1FEE1FFF1FA217B307E407F50720F0C5
:101CB000A21BB30BE40BF50B661F771F881F991F40
:101CC0001A9469F760957095809590959B01AC0189
:101CD000BD01CF0108950E94760EA59F900DB49F7F
:101CE000900DA49F800D911D11240895A29FB00115
:101CF000B39FC001A39F700D811D1124911DB29F40
:101D0000700D811D1124911D08950E948C0E689400
:101D1000B1110C94430E08950E94280E88F09F572D
:101D200098F0B92F9927B751B0F0E1F0660F771FFF
:101D3000881F991F1AF0BA95C9F714C0B13091F0F5
:101D40000E94420EB1E008950C94420E672F782F46
:101D50008827B85F39F0B93FCCF3869577956795BA
:101D6000B395D9F73EF490958095709561957F4F26
:101D70008F4F9F4F089597FB072E16F4009407D0BE
:101D800077FD09D00E94F50E07FC05D03EF4909532
:101D900081959F4F0895709561957F4F0895052E09
:101DA00097FB1EF400940E94E60E57FD07D00E9498
:101DB000490E07FC03D04EF40C94E60E5095409566
:101DC000309521953F4F4F4F5F4F089590958095E7
:101DD000709561957F4F8F4F9F4F08950E94760EAB
:101DE000B7FF0895821B930B0895AA1BBB1B51E1FB
:101DF00007C0AA1FBB1FA617B70710F0A61BB70B7B
:101E0000881F991F5A95A9F780959095BC01CD011F
:101E10000895EE0FFF1F0590F491E02D099481E0E5
:101E200090E0F8940C94140F10E0C3E6D0E004C0E6
:101E3000FE010E94090F2196C436D107C9F7F89414
:021E4000FFCFD2
:101E42001500FFB8010000B80100009300A500C40E
:101E520000B801B80100009300830093009C00A524
:101E620000C4009300A50000001000100010001034
:101E720000100010001000100010000400100008F4
:101E8200001000100010001000080010000800C42C
:101E92000006010601EE01B8010000C400930083B0
:101EA2000083009300C400C40000009300C400003B
:101EB20000C40006010601370137010000C400A575
:101EC20000B900B900C400C400B8010000EE010668
:101ED20001060106010400080008000800080008C5
:101EE20000080008000800080008000800080004B4
:101EF20000080008000800080008000800080008A0
:101F0200000800080008000800080008000800088F
:101F12000008002601930093009300260106012683
:101F220001260193002601930093009300260106E7
:101F320001260126014A015D01C400B80126019370
:101F42000093009300260106012601260193002634
:101F5200019300930093002601060126010601B8B1
:101F62000100000400080008000800080004000A3C
:101F7200000800040004000800080008000800042B
:101F82000002000800100010000800080004000809
:101F92000008000800080004000A00080004000409
:101FA20000080008000800080004000800080004F7
:101FB200000200000000002F03B600C7027603F8FB
:101FC20002D602EA0200000000E403B6007204E353
:101FD2000338045004CB03564D4450565F317C31D4
:101FE2005F564D4450560D0A00564D4450455F0011
:101FF2003A323A007C005F564D445045004100425F
:062002000043002C000069
:00000001FF
